{
  "_format": "hh-sol-artifact-1",
  "contractName": "Hermez",
  "sourceName": "contracts/hermez/Hermez.sol",
  "abi": [
    {
      "anonymous": false,
      "inputs": [
        {
          "indexed": true,
          "internalType": "address",
          "name": "tokenAddress",
          "type": "address"
        },
        {
          "indexed": false,
          "internalType": "uint32",
          "name": "tokenID",
          "type": "uint32"
        }
      ],
      "name": "AddToken",
      "type": "event"
    },
    {
      "anonymous": false,
      "inputs": [
        {
          "indexed": true,
          "internalType": "uint32",
          "name": "batchNum",
          "type": "uint32"
        },
        {
          "indexed": false,
          "internalType": "uint16",
          "name": "l1UserTxsLen",
          "type": "uint16"
        }
      ],
      "name": "ForgeBatch",
      "type": "event"
    },
    {
      "anonymous": false,
      "inputs": [
        {
          "indexed": false,
          "internalType": "uint8",
          "name": "forgeL1L2BatchTimeout",
          "type": "uint8"
        },
        {
          "indexed": false,
          "internalType": "uint256",
          "name": "feeAddToken",
          "type": "uint256"
        },
        {
          "indexed": false,
          "internalType": "uint64",
          "name": "withdrawalDelay",
          "type": "uint64"
        }
      ],
      "name": "InitializeHermezEvent",
      "type": "event"
    },
    {
      "anonymous": false,
      "inputs": [
        {
          "indexed": true,
          "internalType": "uint32",
          "name": "queueIndex",
          "type": "uint32"
        },
        {
          "indexed": true,
          "internalType": "uint8",
          "name": "position",
          "type": "uint8"
        },
        {
          "indexed": false,
          "internalType": "bytes",
          "name": "l1UserTx",
          "type": "bytes"
        }
      ],
      "name": "L1UserTxEvent",
      "type": "event"
    },
    {
      "anonymous": false,
      "inputs": [],
      "name": "SafeMode",
      "type": "event"
    },
    {
      "anonymous": false,
      "inputs": [
        {
          "indexed": true,
          "internalType": "uint8",
          "name": "numBucket",
          "type": "uint8"
        },
        {
          "indexed": true,
          "internalType": "uint256",
          "name": "blockStamp",
          "type": "uint256"
        },
        {
          "indexed": false,
          "internalType": "uint256",
          "name": "withdrawals",
          "type": "uint256"
        }
      ],
      "name": "UpdateBucketWithdraw",
      "type": "event"
    },
    {
      "anonymous": false,
      "inputs": [
        {
          "indexed": false,
          "internalType": "uint256[]",
          "name": "arrayBuckets",
          "type": "uint256[]"
        }
      ],
      "name": "UpdateBucketsParameters",
      "type": "event"
    },
    {
      "anonymous": false,
      "inputs": [
        {
          "indexed": false,
          "internalType": "uint256",
          "name": "newFeeAddToken",
          "type": "uint256"
        }
      ],
      "name": "UpdateFeeAddToken",
      "type": "event"
    },
    {
      "anonymous": false,
      "inputs": [
        {
          "indexed": false,
          "internalType": "uint8",
          "name": "newForgeL1L2BatchTimeout",
          "type": "uint8"
        }
      ],
      "name": "UpdateForgeL1L2BatchTimeout",
      "type": "event"
    },
    {
      "anonymous": false,
      "inputs": [
        {
          "indexed": false,
          "internalType": "address[]",
          "name": "addressArray",
          "type": "address[]"
        },
        {
          "indexed": false,
          "internalType": "uint64[]",
          "name": "valueArray",
          "type": "uint64[]"
        }
      ],
      "name": "UpdateTokenExchange",
      "type": "event"
    },
    {
      "anonymous": false,
      "inputs": [
        {
          "indexed": false,
          "internalType": "uint64",
          "name": "newWithdrawalDelay",
          "type": "uint64"
        }
      ],
      "name": "UpdateWithdrawalDelay",
      "type": "event"
    },
    {
      "anonymous": false,
      "inputs": [
        {
          "indexed": true,
          "internalType": "uint48",
          "name": "idx",
          "type": "uint48"
        },
        {
          "indexed": true,
          "internalType": "uint32",
          "name": "numExitRoot",
          "type": "uint32"
        },
        {
          "indexed": true,
          "internalType": "bool",
          "name": "instantWithdraw",
          "type": "bool"
        }
      ],
      "name": "WithdrawEvent",
      "type": "event"
    },
    {
      "inputs": [],
      "name": "ABSOLUTE_MAX_L1L2BATCHTIMEOUT",
      "outputs": [
        {
          "internalType": "uint8",
          "name": "",
          "type": "uint8"
        }
      ],
      "stateMutability": "view",
      "type": "function"
    },
    {
      "inputs": [],
      "name": "ACCOUNT_CREATION_HASH",
      "outputs": [
        {
          "internalType": "bytes32",
          "name": "",
          "type": "bytes32"
        }
      ],
      "stateMutability": "view",
      "type": "function"
    },
    {
      "inputs": [],
      "name": "AUTHORISE_TYPEHASH",
      "outputs": [
        {
          "internalType": "bytes32",
          "name": "",
          "type": "bytes32"
        }
      ],
      "stateMutability": "view",
      "type": "function"
    },
    {
      "inputs": [],
      "name": "DOMAIN_SEPARATOR",
      "outputs": [
        {
          "internalType": "bytes32",
          "name": "domainSeparator",
          "type": "bytes32"
        }
      ],
      "stateMutability": "view",
      "type": "function"
    },
    {
      "inputs": [],
      "name": "EIP712DOMAIN_HASH",
      "outputs": [
        {
          "internalType": "bytes32",
          "name": "",
          "type": "bytes32"
        }
      ],
      "stateMutability": "view",
      "type": "function"
    },
    {
      "inputs": [],
      "name": "HERMEZ_NETWORK_HASH",
      "outputs": [
        {
          "internalType": "bytes32",
          "name": "",
          "type": "bytes32"
        }
      ],
      "stateMutability": "view",
      "type": "function"
    },
    {
      "inputs": [],
      "name": "NAME_HASH",
      "outputs": [
        {
          "internalType": "bytes32",
          "name": "",
          "type": "bytes32"
        }
      ],
      "stateMutability": "view",
      "type": "function"
    },
    {
      "inputs": [],
      "name": "VERSION_HASH",
      "outputs": [
        {
          "internalType": "bytes32",
          "name": "",
          "type": "bytes32"
        }
      ],
      "stateMutability": "view",
      "type": "function"
    },
    {
      "inputs": [
        {
          "internalType": "uint256",
          "name": "babyPubKey",
          "type": "uint256"
        },
        {
          "internalType": "uint48",
          "name": "fromIdx",
          "type": "uint48"
        },
        {
          "internalType": "uint40",
          "name": "loadAmountF",
          "type": "uint40"
        },
        {
          "internalType": "uint40",
          "name": "amountF",
          "type": "uint40"
        },
        {
          "internalType": "uint32",
          "name": "tokenID",
          "type": "uint32"
        },
        {
          "internalType": "uint48",
          "name": "toIdx",
          "type": "uint48"
        },
        {
          "internalType": "bytes",
          "name": "permit",
          "type": "bytes"
        }
      ],
      "name": "addL1Transaction",
      "outputs": [],
      "stateMutability": "payable",
      "type": "function"
    },
    {
      "inputs": [
        {
          "internalType": "address",
          "name": "tokenAddress",
          "type": "address"
        },
        {
          "internalType": "bytes",
          "name": "permit",
          "type": "bytes"
        }
      ],
      "name": "addToken",
      "outputs": [],
      "stateMutability": "nonpayable",
      "type": "function"
    },
    {
      "inputs": [
        {
          "internalType": "int256",
          "name": "",
          "type": "int256"
        }
      ],
      "name": "buckets",
      "outputs": [
        {
          "internalType": "uint256",
          "name": "",
          "type": "uint256"
        }
      ],
      "stateMutability": "view",
      "type": "function"
    },
    {
      "inputs": [
        {
          "internalType": "uint32",
          "name": "",
          "type": "uint32"
        },
        {
          "internalType": "uint48",
          "name": "",
          "type": "uint48"
        }
      ],
      "name": "exitNullifierMap",
      "outputs": [
        {
          "internalType": "bool",
          "name": "",
          "type": "bool"
        }
      ],
      "stateMutability": "view",
      "type": "function"
    },
    {
      "inputs": [
        {
          "internalType": "uint32",
          "name": "",
          "type": "uint32"
        }
      ],
      "name": "exitRootsMap",
      "outputs": [
        {
          "internalType": "uint256",
          "name": "",
          "type": "uint256"
        }
      ],
      "stateMutability": "view",
      "type": "function"
    },
    {
      "inputs": [],
      "name": "feeAddToken",
      "outputs": [
        {
          "internalType": "uint256",
          "name": "",
          "type": "uint256"
        }
      ],
      "stateMutability": "view",
      "type": "function"
    },
    {
      "inputs": [
        {
          "internalType": "uint48",
          "name": "newLastIdx",
          "type": "uint48"
        },
        {
          "internalType": "uint256",
          "name": "newStRoot",
          "type": "uint256"
        },
        {
          "internalType": "uint256",
          "name": "newExitRoot",
          "type": "uint256"
        },
        {
          "internalType": "bytes",
          "name": "encodedL1CoordinatorTx",
          "type": "bytes"
        },
        {
          "internalType": "bytes",
          "name": "l1L2TxsData",
          "type": "bytes"
        },
        {
          "internalType": "bytes",
          "name": "feeIdxCoordinator",
          "type": "bytes"
        },
        {
          "internalType": "uint8",
          "name": "verifierIdx",
          "type": "uint8"
        },
        {
          "internalType": "bool",
          "name": "l1Batch",
          "type": "bool"
        },
        {
          "internalType": "uint256[2]",
          "name": "proofA",
          "type": "uint256[2]"
        },
        {
          "internalType": "uint256[2][2]",
          "name": "proofB",
          "type": "uint256[2][2]"
        },
        {
          "internalType": "uint256[2]",
          "name": "proofC",
          "type": "uint256[2]"
        }
      ],
      "name": "forgeBatch",
      "outputs": [],
      "stateMutability": "nonpayable",
      "type": "function"
    },
    {
      "inputs": [],
      "name": "forgeL1L2BatchTimeout",
      "outputs": [
        {
          "internalType": "uint8",
          "name": "",
          "type": "uint8"
        }
      ],
      "stateMutability": "view",
      "type": "function"
    },
    {
      "inputs": [],
      "name": "getChainId",
      "outputs": [
        {
          "internalType": "uint256",
          "name": "chainId",
          "type": "uint256"
        }
      ],
      "stateMutability": "pure",
      "type": "function"
    },
    {
      "inputs": [],
      "name": "hermezAuctionContract",
      "outputs": [
        {
          "internalType": "contract IHermezAuctionProtocol",
          "name": "",
          "type": "address"
        }
      ],
      "stateMutability": "view",
      "type": "function"
    },
    {
      "inputs": [],
      "name": "hermezGovernanceAddress",
      "outputs": [
        {
          "internalType": "address",
          "name": "",
          "type": "address"
        }
      ],
      "stateMutability": "view",
      "type": "function"
    },
    {
      "inputs": [
        {
          "internalType": "address[]",
          "name": "_verifiers",
          "type": "address[]"
        },
        {
          "internalType": "uint256[]",
          "name": "_verifiersParams",
          "type": "uint256[]"
        },
        {
          "internalType": "address",
          "name": "_withdrawVerifier",
          "type": "address"
        },
        {
          "internalType": "address",
          "name": "_hermezAuctionContract",
          "type": "address"
        },
        {
          "internalType": "address",
          "name": "_tokenHEZ",
          "type": "address"
        },
        {
          "internalType": "uint8",
          "name": "_forgeL1L2BatchTimeout",
          "type": "uint8"
        },
        {
          "internalType": "uint256",
          "name": "_feeAddToken",
          "type": "uint256"
        },
        {
          "internalType": "address",
          "name": "_poseidon2Elements",
          "type": "address"
        },
        {
          "internalType": "address",
          "name": "_poseidon3Elements",
          "type": "address"
        },
        {
          "internalType": "address",
          "name": "_poseidon4Elements",
          "type": "address"
        },
        {
          "internalType": "address",
          "name": "_hermezGovernanceAddress",
          "type": "address"
        },
        {
          "internalType": "uint64",
          "name": "_withdrawalDelay",
          "type": "uint64"
        },
        {
          "internalType": "address",
          "name": "_withdrawDelayerContract",
          "type": "address"
        }
      ],
      "name": "initializeHermez",
      "outputs": [],
      "stateMutability": "nonpayable",
      "type": "function"
    },
    {
      "inputs": [
        {
          "internalType": "address",
          "name": "tokenAddress",
          "type": "address"
        },
        {
          "internalType": "uint192",
          "name": "amount",
          "type": "uint192"
        }
      ],
      "name": "instantWithdrawalViewer",
      "outputs": [
        {
          "internalType": "bool",
          "name": "",
          "type": "bool"
        }
      ],
      "stateMutability": "view",
      "type": "function"
    },
    {
      "inputs": [
        {
          "internalType": "uint32",
          "name": "",
          "type": "uint32"
        }
      ],
      "name": "l1L2TxsDataHashMap",
      "outputs": [
        {
          "internalType": "bytes32",
          "name": "",
          "type": "bytes32"
        }
      ],
      "stateMutability": "view",
      "type": "function"
    },
    {
      "inputs": [],
      "name": "lastForgedBatch",
      "outputs": [
        {
          "internalType": "uint32",
          "name": "",
          "type": "uint32"
        }
      ],
      "stateMutability": "view",
      "type": "function"
    },
    {
      "inputs": [],
      "name": "lastIdx",
      "outputs": [
        {
          "internalType": "uint48",
          "name": "",
          "type": "uint48"
        }
      ],
      "stateMutability": "view",
      "type": "function"
    },
    {
      "inputs": [],
      "name": "lastL1L2Batch",
      "outputs": [
        {
          "internalType": "uint64",
          "name": "",
          "type": "uint64"
        }
      ],
      "stateMutability": "view",
      "type": "function"
    },
    {
      "inputs": [
        {
          "internalType": "uint32",
          "name": "",
          "type": "uint32"
        }
      ],
      "name": "mapL1TxQueue",
      "outputs": [
        {
          "internalType": "bytes",
          "name": "",
          "type": "bytes"
        }
      ],
      "stateMutability": "view",
      "type": "function"
    },
    {
      "inputs": [],
      "name": "nBuckets",
      "outputs": [
        {
          "internalType": "uint256",
          "name": "",
          "type": "uint256"
        }
      ],
      "stateMutability": "view",
      "type": "function"
    },
    {
      "inputs": [],
      "name": "nextL1FillingQueue",
      "outputs": [
        {
          "internalType": "uint32",
          "name": "",
          "type": "uint32"
        }
      ],
      "stateMutability": "view",
      "type": "function"
    },
    {
      "inputs": [],
      "name": "nextL1ToForgeQueue",
      "outputs": [
        {
          "internalType": "uint32",
          "name": "",
          "type": "uint32"
        }
      ],
      "stateMutability": "view",
      "type": "function"
    },
    {
      "inputs": [
        {
          "internalType": "uint256",
          "name": "ceilUSD",
          "type": "uint256"
        },
        {
          "internalType": "uint256",
          "name": "blockStamp",
          "type": "uint256"
        },
        {
          "internalType": "uint256",
          "name": "withdrawals",
          "type": "uint256"
        },
        {
          "internalType": "uint256",
          "name": "rateBlocks",
          "type": "uint256"
        },
        {
          "internalType": "uint256",
          "name": "rateWithdrawals",
          "type": "uint256"
        },
        {
          "internalType": "uint256",
          "name": "maxWithdrawals",
          "type": "uint256"
        }
      ],
      "name": "packBucket",
      "outputs": [
        {
          "internalType": "uint256",
          "name": "ret",
          "type": "uint256"
        }
      ],
      "stateMutability": "pure",
      "type": "function"
    },
    {
      "inputs": [],
      "name": "registerTokensCount",
      "outputs": [
        {
          "internalType": "uint256",
          "name": "",
          "type": "uint256"
        }
      ],
      "stateMutability": "view",
      "type": "function"
    },
    {
      "inputs": [
        {
          "internalType": "uint256",
          "name": "",
          "type": "uint256"
        }
      ],
      "name": "rollupVerifiers",
      "outputs": [
        {
          "internalType": "contract VerifierRollupInterface",
          "name": "verifierInterface",
          "type": "address"
        },
        {
          "internalType": "uint256",
          "name": "maxTx",
          "type": "uint256"
        },
        {
          "internalType": "uint256",
          "name": "nLevels",
          "type": "uint256"
        }
      ],
      "stateMutability": "view",
      "type": "function"
    },
    {
      "inputs": [],
      "name": "rollupVerifiersLength",
      "outputs": [
        {
          "internalType": "uint256",
          "name": "",
          "type": "uint256"
        }
      ],
      "stateMutability": "view",
      "type": "function"
    },
    {
      "inputs": [],
      "name": "safeMode",
      "outputs": [],
      "stateMutability": "nonpayable",
      "type": "function"
    },
    {
      "inputs": [
        {
          "internalType": "uint32",
          "name": "",
          "type": "uint32"
        }
      ],
      "name": "stateRootMap",
      "outputs": [
        {
          "internalType": "uint256",
          "name": "",
          "type": "uint256"
        }
      ],
      "stateMutability": "view",
      "type": "function"
    },
    {
      "inputs": [
        {
          "internalType": "address",
          "name": "",
          "type": "address"
        }
      ],
      "name": "tokenExchange",
      "outputs": [
        {
          "internalType": "uint64",
          "name": "",
          "type": "uint64"
        }
      ],
      "stateMutability": "view",
      "type": "function"
    },
    {
      "inputs": [],
      "name": "tokenHEZ",
      "outputs": [
        {
          "internalType": "address",
          "name": "",
          "type": "address"
        }
      ],
      "stateMutability": "view",
      "type": "function"
    },
    {
      "inputs": [
        {
          "internalType": "uint256",
          "name": "",
          "type": "uint256"
        }
      ],
      "name": "tokenList",
      "outputs": [
        {
          "internalType": "address",
          "name": "",
          "type": "address"
        }
      ],
      "stateMutability": "view",
      "type": "function"
    },
    {
      "inputs": [
        {
          "internalType": "address",
          "name": "",
          "type": "address"
        }
      ],
      "name": "tokenMap",
      "outputs": [
        {
          "internalType": "uint256",
          "name": "",
          "type": "uint256"
        }
      ],
      "stateMutability": "view",
      "type": "function"
    },
    {
      "inputs": [
        {
          "internalType": "uint256",
          "name": "bucket",
          "type": "uint256"
        }
      ],
      "name": "unpackBucket",
      "outputs": [
        {
          "internalType": "uint256",
          "name": "ceilUSD",
          "type": "uint256"
        },
        {
          "internalType": "uint256",
          "name": "blockStamp",
          "type": "uint256"
        },
        {
          "internalType": "uint256",
          "name": "withdrawals",
          "type": "uint256"
        },
        {
          "internalType": "uint256",
          "name": "rateBlocks",
          "type": "uint256"
        },
        {
          "internalType": "uint256",
          "name": "rateWithdrawals",
          "type": "uint256"
        },
        {
          "internalType": "uint256",
          "name": "maxWithdrawals",
          "type": "uint256"
        }
      ],
      "stateMutability": "pure",
      "type": "function"
    },
    {
      "inputs": [
        {
          "internalType": "uint256[]",
          "name": "newBuckets",
          "type": "uint256[]"
        }
      ],
      "name": "updateBucketsParameters",
      "outputs": [],
      "stateMutability": "nonpayable",
      "type": "function"
    },
    {
      "inputs": [
        {
          "internalType": "uint256",
          "name": "newFeeAddToken",
          "type": "uint256"
        }
      ],
      "name": "updateFeeAddToken",
      "outputs": [],
      "stateMutability": "nonpayable",
      "type": "function"
    },
    {
      "inputs": [
        {
          "internalType": "uint8",
          "name": "newForgeL1L2BatchTimeout",
          "type": "uint8"
        }
      ],
      "name": "updateForgeL1L2BatchTimeout",
      "outputs": [],
      "stateMutability": "nonpayable",
      "type": "function"
    },
    {
      "inputs": [
        {
          "internalType": "address[]",
          "name": "addressArray",
          "type": "address[]"
        },
        {
          "internalType": "uint64[]",
          "name": "valueArray",
          "type": "uint64[]"
        }
      ],
      "name": "updateTokenExchange",
      "outputs": [],
      "stateMutability": "nonpayable",
      "type": "function"
    },
    {
      "inputs": [
        {
          "internalType": "uint64",
          "name": "newWithdrawalDelay",
          "type": "uint64"
        }
      ],
      "name": "updateWithdrawalDelay",
      "outputs": [],
      "stateMutability": "nonpayable",
      "type": "function"
    },
    {
      "inputs": [
        {
          "internalType": "uint256[2]",
          "name": "proofA",
          "type": "uint256[2]"
        },
        {
          "internalType": "uint256[2][2]",
          "name": "proofB",
          "type": "uint256[2][2]"
        },
        {
          "internalType": "uint256[2]",
          "name": "proofC",
          "type": "uint256[2]"
        },
        {
          "internalType": "uint32",
          "name": "tokenID",
          "type": "uint32"
        },
        {
          "internalType": "uint192",
          "name": "amount",
          "type": "uint192"
        },
        {
          "internalType": "uint32",
          "name": "numExitRoot",
          "type": "uint32"
        },
        {
          "internalType": "uint48",
          "name": "idx",
          "type": "uint48"
        },
        {
          "internalType": "bool",
          "name": "instantWithdraw",
          "type": "bool"
        }
      ],
      "name": "withdrawCircuit",
      "outputs": [],
      "stateMutability": "nonpayable",
      "type": "function"
    },
    {
      "inputs": [],
      "name": "withdrawDelayerContract",
      "outputs": [
        {
          "internalType": "contract IWithdrawalDelayer",
          "name": "",
          "type": "address"
        }
      ],
      "stateMutability": "view",
      "type": "function"
    },
    {
      "inputs": [
        {
          "internalType": "uint32",
          "name": "tokenID",
          "type": "uint32"
        },
        {
          "internalType": "uint192",
          "name": "amount",
          "type": "uint192"
        },
        {
          "internalType": "uint256",
          "name": "babyPubKey",
          "type": "uint256"
        },
        {
          "internalType": "uint32",
          "name": "numExitRoot",
          "type": "uint32"
        },
        {
          "internalType": "uint256[]",
          "name": "siblings",
          "type": "uint256[]"
        },
        {
          "internalType": "uint48",
          "name": "idx",
          "type": "uint48"
        },
        {
          "internalType": "bool",
          "name": "instantWithdraw",
          "type": "bool"
        }
      ],
      "name": "withdrawMerkleProof",
      "outputs": [],
      "stateMutability": "nonpayable",
      "type": "function"
    },
    {
      "inputs": [],
      "name": "withdrawVerifier",
      "outputs": [
        {
          "internalType": "contract VerifierWithdrawInterface",
          "name": "",
          "type": "address"
        }
      ],
      "stateMutability": "view",
      "type": "function"
    },
    {
      "inputs": [],
      "name": "withdrawalDelay",
      "outputs": [
        {
          "internalType": "uint64",
          "name": "",
          "type": "uint64"
        }
      ],
      "stateMutability": "view",
      "type": "function"
    }
  ],
  "bytecode": "0x608060405234801561001057600080fd5b50615ca180620000216000396000f3fe6080604052600436106102c85760003560e01c8063864eb16411610175578063c473af33116100dc578063d486645c11610095578063e62f6b921161006f578063e62f6b921461103f578063ef4a5c4a14611054578063f1f2fcab14610343578063f84f92ee14611087576102c8565b8063d486645c14610e83578063d9d4ca4414610eb3578063dc3e718e14610f9a576102c8565b8063c473af3314610d04578063c727305314610d19578063cbd7b5fb14610dc9578063ccd226a714610df6578063ce5ec65a14610e3e578063d0f32e6714610e6e576102c8565b80639f34e9a31161012e5780639f34e9a314610bed578063a327583814610c02578063a7ab696114610c17578063abe3219c14610c2c578063ac300ec914610c41578063bded9bb814610cef576102c8565b8063864eb16414610ad157806395a09f2a14610ae65780639ce2ad4214610b115780639e00d7ea14610b7e5780639e4e731814610bae5780639ead722214610bc3576102c8565b80633408e4701161023457806344e0b2ce116101ed57806370c2f1c0116101c757806370c2f1c014610a0757806379a135e314610a925780637ba3a5e014610aa757806384ef9ed414610abc576102c8565b806344e0b2ce1461070e578063599897e3146107235780636e7e1365146108b5576102c8565b80633408e470146105af5780633644e515146105c4578063375110aa146105d9578063383302001461062f5780633ee641ea146106815780633f267155146106b1576102c8565b80630ee8e52b116102865780630ee8e52b146103e65780631300aff0146104145780631a748c2d146104295780631b0a82231461055b5780632bd8362614610570578063314e5eda14610585576102c8565b80624aca6e146102cd578063013f78521461031257806304622c2e14610343578063061d09641461035857806307feef6e146103825780630dd94b9614610397575b600080fd5b3480156102d957600080fd5b50610300600480360360208110156102f057600080fd5b50356001600160a01b03166110c5565b60408051918252519081900360200190f35b34801561031e57600080fd5b506103276110d7565b604080516001600160a01b039092168252519081900360200190f35b34801561034f57600080fd5b506103006110e6565b34801561036457600080fd5b506103006004803603602081101561037b57600080fd5b503561110a565b34801561038e57600080fd5b5061030061111c565b3480156103a357600080fd5b506103ca600480360360208110156103ba57600080fd5b50356001600160a01b0316611122565b604080516001600160401b039092168252519081900360200190f35b3480156103f257600080fd5b506103fb61113d565b6040805163ffffffff9092168252519081900360200190f35b34801561042057600080fd5b50610300611150565b34801561043557600080fd5b506105596004803603604081101561044c57600080fd5b810190602081018135600160201b81111561046657600080fd5b82018360208201111561047857600080fd5b803590602001918460208302840111600160201b8311171561049957600080fd5b9190808060200260200160405190810160405280939291908181526020018383602002808284376000920191909152509295949360208101935035915050600160201b8111156104e857600080fd5b8201836020820111156104fa57600080fd5b803590602001918460208302840111600160201b8311171561051b57600080fd5b919080806020026020016040519081016040528093929190818152602001838360200280828437600092019190915250929550611174945050505050565b005b34801561056757600080fd5b50610327611337565b34801561057c57600080fd5b50610327611346565b34801561059157600080fd5b50610559600480360360208110156105a857600080fd5b5035611355565b3480156105bb57600080fd5b506103006113d9565b3480156105d057600080fd5b506103006113dd565b3480156105e557600080fd5b5061061b600480360360408110156105fc57600080fd5b5080356001600160a01b031690602001356001600160c01b031661149b565b604080519115158252519081900360200190f35b34801561063b57600080fd5b506106596004803603602081101561065257600080fd5b503561157c565b604080516001600160a01b039094168452602084019290925282820152519081900360600190f35b34801561068d57600080fd5b50610300600480360360208110156106a457600080fd5b503563ffffffff166115b6565b3480156106bd57600080fd5b506106db600480360360208110156106d457600080fd5b50356115c8565b604080519687526020870195909552858501939093526060850191909152608084015260a0830152519081900360c00190f35b34801561071a57600080fd5b506103fb6115fd565b34801561072f57600080fd5b5061055960048036036101a081101561074757600080fd5b810190602081018135600160201b81111561076157600080fd5b82018360208201111561077357600080fd5b803590602001918460208302840111600160201b8311171561079457600080fd5b9190808060200260200160405190810160405280939291908181526020018383602002808284376000920191909152509295949360208101935035915050600160201b8111156107e357600080fd5b8201836020820111156107f557600080fd5b803590602001918460208302840111600160201b8311171561081657600080fd5b919080806020026020016040519081016040528093929190818152602001838360200280828437600092019190915250929550506001600160a01b03833581169450602084013581169360408101358216935060ff606082013516925060808101359160a082013581169160c081013582169160e08201358116916101008101358216916001600160401b036101208301351691610140013516611610565b3480156108c157600080fd5b5061055960048036036102008110156108d957600080fd5b65ffffffffffff8235169160208101359160408201359190810190608081016060820135600160201b81111561090e57600080fd5b82018360208201111561092057600080fd5b803590602001918460018302840111600160201b8311171561094157600080fd5b919390929091602081019035600160201b81111561095e57600080fd5b82018360208201111561097057600080fd5b803590602001918460018302840111600160201b8311171561099157600080fd5b919390929091602081019035600160201b8111156109ae57600080fd5b8201836020820111156109c057600080fd5b803590602001918460018302840111600160201b831117156109e157600080fd5b919350915060ff81351690602081013515159060408101906080810190610100016118ae565b348015610a1357600080fd5b5061055960048036036040811015610a2a57600080fd5b6001600160a01b038235169190810190604081016020820135600160201b811115610a5457600080fd5b820183602082011115610a6657600080fd5b803590602001918460018302840111600160201b83111715610a8757600080fd5b509092509050611d98565b348015610a9e57600080fd5b50610327612021565b348015610ab357600080fd5b50610300612030565b348015610ac857600080fd5b506103ca612036565b348015610add57600080fd5b50610327612045565b348015610af257600080fd5b50610afb612054565b6040805160ff9092168252519081900360200190f35b348015610b1d57600080fd5b5061055960048036036101a0811015610b3557600080fd5b506040810160c0820163ffffffff6101008401358116906001600160c01b0361012086013516906101408601351665ffffffffffff610160870135166101808701351515612059565b348015610b8a57600080fd5b5061030060048036036020811015610ba157600080fd5b503563ffffffff1661242c565b348015610bba57600080fd5b5061030061243e565b348015610bcf57600080fd5b5061032760048036036020811015610be657600080fd5b5035612462565b348015610bf957600080fd5b50610300612489565b348015610c0e57600080fd5b50610afb61248f565b348015610c2357600080fd5b506103ca61249f565b348015610c3857600080fd5b506105596124b5565b348015610c4d57600080fd5b5061055960048036036020811015610c6457600080fd5b810190602081018135600160201b811115610c7e57600080fd5b820183602082011115610c9057600080fd5b803590602001918460208302840111600160201b83111715610cb157600080fd5b9190808060200260200160405190810160405280939291908181526020018383602002808284376000920191909152509295506125ef945050505050565b348015610cfb57600080fd5b506103006127df565b348015610d1057600080fd5b506103006127e5565b610559600480360360e0811015610d2f57600080fd5b81359165ffffffffffff602082013581169264ffffffffff604084013581169360608101359091169263ffffffff6080830135169260a0830135909116919081019060e0810160c0820135600160201b811115610d8b57600080fd5b820183602082011115610d9d57600080fd5b803590602001918460018302840111600160201b83111715610dbe57600080fd5b509092509050612809565b348015610dd557600080fd5b5061055960048036036020811015610dec57600080fd5b503560ff16612b1f565b348015610e0257600080fd5b50610300600480360360c0811015610e1957600080fd5b5080359060208101359060408101359060608101359060808101359060a00135612bff565b348015610e4a57600080fd5b5061030060048036036020811015610e6157600080fd5b503563ffffffff16612c2c565b348015610e7a57600080fd5b506103fb612c3e565b348015610e8f57600080fd5b50610e98612c51565b6040805165ffffffffffff9092168252519081900360200190f35b348015610ebf57600080fd5b50610559600480360360e0811015610ed657600080fd5b63ffffffff82358116926001600160c01b0360208201351692604082013592606083013516919081019060a081016080820135600160201b811115610f1a57600080fd5b820183602082011115610f2c57600080fd5b803590602001918460208302840111600160201b83111715610f4d57600080fd5b9190808060200260200160405190810160405280939291908181526020018383602002808284376000920191909152509295505065ffffffffffff83351693505050602001351515612c66565b348015610fa657600080fd5b50610fca60048036036020811015610fbd57600080fd5b503563ffffffff16612e56565b6040805160208082528351818301528351919283929083019185019080838360005b83811015611004578181015183820152602001610fec565b50505050905090810190601f1680156110315780820380516001836020036101000a031916815260200191505b509250505060405180910390f35b34801561104b57600080fd5b50610300612ef1565b34801561106057600080fd5b506105596004803603602081101561107757600080fd5b50356001600160401b0316612f15565b34801561109357600080fd5b5061061b600480360360408110156110aa57600080fd5b50803563ffffffff16906020013565ffffffffffff1661300a565b600f6020526000908152604090205481565b6005546001600160a01b031681565b7fbe287413178bfeddef8d9753ad4be825ae998706a6dabff23978b59dccaea0ad81565b60046020526000908152604090205481565b60035481565b6007602052600090815260409020546001600160401b031681565b601354600160601b900463ffffffff1681565b7fff946cf82975b1a2b6e6d28c9a76a4b8d7a1fd0592b785cb92771933310f9ee781565b6005546001600160a01b031633146111bd5760405162461bcd60e51b815260040180806020018281038252603f815260200180615aa4603f913960400191505060405180910390fd5b80518251146111fd5760405162461bcd60e51b815260040180806020018281038252604181526020018061531c6041913960600191505060405180910390fd5b60005b82518110156112775781818151811061121557fe5b60200260200101516007600085848151811061122d57fe5b6020908102919091018101516001600160a01b03168252810191909152604001600020805467ffffffffffffffff19166001600160401b0392909216919091179055600101611200565b507f10ff643ebeca3e33002e61b76fa85e7e10091e30afa39295f91af9838b3033b38282604051808060200180602001838103835285818151815260200191508051906020019060200280838360005b838110156112df5781810151838201526020016112c7565b50505050905001838103825284818151815260200191508051906020019060200280838360005b8381101561131e578181015183820152602001611306565b5050505090500194505050505060405180910390a15050565b6006546001600160a01b031681565b6011546001600160a01b031681565b6005546001600160a01b0316331461139e5760405162461bcd60e51b815260040180806020018281038252603f815260200180615aa4603f913960400191505060405180910390fd5b60108190556040805182815290517fd1c873cd16013f0dc5f37992c0d12794389698512895ec036a568e393b46e3c19181900360200190a150565b4690565b60007f8b73c3c69bb8fe3d512ecc4cf759cc79239f7b179b0ffacaa9a75d522b39400f7fbe287413178bfeddef8d9753ad4be825ae998706a6dabff23978b59dccaea0ad7fc89efdaa54c0f20c7adf612882df0950f5a951637e0307cdcb4c672f298b8bc661144a6113d9565b3060405160200180868152602001858152602001848152602001838152602001826001600160a01b031681526020019550505050505060405160208183030381529060405280519060200120905090565b6000806114a8848461302a565b9050806114b9576001915050611576565b60006114c4826131e9565b90508060001914156114db57600192505050611576565b60008060008060006114ff60046000888152602001908152602001600020546115c8565b9550955095509550955050600061151f864361324690919063ffffffff16565b9050600061152d828661328f565b905061154361153c82866132d1565b879061332a565b955082861115611551578295505b856115685760009950505050505050505050611576565b600199505050505050505050505b92915050565b6008818154811061158957fe5b60009182526020909120600390910201805460018201546002909201546001600160a01b03909116925083565b600b6020526000908152604090205481565b6001600160601b0381169163ffffffff606083901c811692608081901c82169260a082901c83169260c083901c169160e01c90565b600954600160d01b900463ffffffff1681565b600054610100900460ff16806116295750611629613384565b80611637575060005460ff16155b6116725760405162461bcd60e51b815260040180806020018281038252602e81526020018061572c602e913960400191505060405180910390fd5b600054610100900460ff1615801561169d576000805460ff1961ff0019909116610100171660011790555b6001600160a01b038b16158015906116bd57506001600160a01b03821615155b6116f85760405162461bcd60e51b815260040180806020018281038252602c81526020018061560d602c913960400191505060405180910390fd5b6117028e8e61338a565b8b600960006101000a8154816001600160a01b0302191690836001600160a01b031602179055508a601160006101000a8154816001600160a01b0302191690836001600160a01b0316021790555089601460006101000a8154816001600160a01b0302191690836001600160a01b0316021790555088601360106101000a81548160ff021916908360ff1602179055508760108190555060ff600960146101000a81548165ffffffffffff021916908365ffffffffffff16021790555060016013600c6101000a81548163ffffffff021916908363ffffffff160217905550600e60009080600181540180825580915050600190039060005260206000200160009091909190916101000a8154816001600160a01b0302191690836001600160a01b0316021790555061183687878761345b565b611841848484613551565b6040805160ff8b168152602081018a90526001600160401b0385168183015290517fc5272ad4c8d9f2e9af2f9555c11ead049be22b6e45c16975adc82371b7cd10409181900360600190a1801561189e576000805461ff00191690555b5050505050505050505050505050565b3332146118ec5760405162461bcd60e51b815260040180806020018281038252602a8152602001806155c2602a913960400191505060405180910390fd5b6011546040805163041d8fb560e51b815233600482015243602482015290516001600160a01b03909216916383b1f6a091604480820192602092909190829003018186803b15801561193d57600080fd5b505afa158015611951573d6000803e3d6000fd5b505050506040513d602081101561196757600080fd5b505115156001146119a95760405162461bcd60e51b81526004018080602001828103825260228152602001806154f26022913960400191505060405180910390fd5b83611a0557601354600160801b810460ff166001600160401b0391821601164310611a055760405162461bcd60e51b81526004018080602001828103825260268152602001806159816026913960400191505060405180910390fd5b6000611a148f8f8f888a613646565b905060088660ff1681548110611a2657fe5b60009182526020918290206003909102015460408051928301815283835280516343753b4d60e01b81526001600160a01b03909216926343753b4d9288928892889290916004909101908190869080828437600083820152601f01601f1916909101905084608080828437600083820152601f01601f1916909101905083604080828437600081840152601f19601f82011690508083019250505082600160200280838360005b83811015611ae5578181015183820152602001611acd565b5050505090500194505050505060206040518083038186803b158015611b0a57600080fd5b505afa158015611b1e573d6000803e3d6000fd5b505050506040513d6020811015611b3457600080fd5b5051611b715760405162461bcd60e51b81526004018080602001828103825260218152602001806153996021913960400191505060405180910390fd5b6009601a81819054906101000a900463ffffffff168092919060010191906101000a81548163ffffffff021916908363ffffffff160217905550508e600960146101000a81548165ffffffffffff021916908365ffffffffffff1602179055508d600a60006009601a9054906101000a900463ffffffff1663ffffffff1663ffffffff168152602001908152602001600020819055508c600b60006009601a9054906101000a900463ffffffff1663ffffffff1663ffffffff1681526020019081526020016000208190555060028a8a6040518083838082843760405192019450602093509091505080830381855afa158015611c72573d6000803e3d6000fd5b5050506040513d6020811015611c8757600080fd5b5051600954600160d01b900463ffffffff166000908152600c60205260408120919091558515611cd8576013805467ffffffffffffffff1916436001600160401b0316179055611cd5613922565b90505b601154604080516309cb4a2f60e31b815233600482015290516001600160a01b0390921691634e5a51789160248082019260009290919082900301818387803b158015611d2457600080fd5b505af1158015611d38573d6000803e3d6000fd5b50506009546040805161ffff861681529051600160d01b90920463ffffffff1693507fe00040c8a3b0bf905636c26924e90520eafc5003324138236fddee2d3458861892506020908290030190a250505050505050505050505050505050565b6000836001600160a01b03166318160ddd6040518163ffffffff1660e01b815260040160206040518083038186803b158015611dd357600080fd5b505afa158015611de7573d6000803e3d6000fd5b505050506040513d6020811015611dfd57600080fd5b505111611e3b5760405162461bcd60e51b8152600401808060200182810382526023815260200180615a536023913960400191505060405180910390fd5b600e54600160201b8110611e805760405162461bcd60e51b81526004018080602001828103825260218152602001806155ec6021913960400191505060405180910390fd5b6001600160a01b038416611ec55760405162461bcd60e51b815260040180806020018281038252602381526020018061559f6023913960400191505060405180910390fd5b6001600160a01b0384166000908152600f602052604090205415611f30576040805162461bcd60e51b815260206004820152601f60248201527f4865726d657a3a3a616464546f6b656e3a20414c52454144595f414444454400604482015290519081900360640190fd5b6005546001600160a01b03163314611f86578115611f6357601454601054611f63916001600160a01b03169085856139df565b601454600554601054611f86926001600160a01b03908116923392911690613ca8565b600e8054600181019091557fbb7b4a454dc3493923482f07822329ed19e8244eff582cc204f8554c3620c3fd0180546001600160a01b0319166001600160a01b0386169081179091556000818152600f6020908152604091829020849055815163ffffffff8516815291517fcb73d161edb7cd4fb1d92fedfd2555384fd997fd44ab507656f8c81e15747dde9281900390910190a250505050565b6014546001600160a01b031681565b60085490565b6013546001600160401b031681565b6009546001600160a01b031681565b60f081565b80156120cb57612090600e8663ffffffff168154811061207557fe5b6000918252602090912001546001600160a01b031685613e05565b6120cb5760405162461bcd60e51b81526004018080602001828103825260438152602001806158306043913960600191505060405180910390fd5b63ffffffff83166000908152600d6020908152604080832065ffffffffffff8616845290915290205460ff16156121335760405162461bcd60e51b815260040180806020018281038252602e8152602001806157d8602e913960400191505060405180910390fd5b63ffffffff83166000908152600b602090815260408083205481518084018290523360601b818401526001600160e01b031960e08b901b16605482015267ffffffffffffffff1989841b1660588201526001600160d01b031960d088901b1660708201528251605681830301815260769091019283905280519194937f30644e72e131a029b85045b68181585d2833e84879b9709143e1f593f00000019360029390918291908401908083835b602083106121ff5780518252601f1990920191602091820191016121e0565b51815160209384036101000a60001901801990921691161790526040519190930194509192505080830381855afa15801561223e573d6000803e3d6000fd5b5050506040513d602081101561225357600080fd5b50518161225c57fe5b600954604080516020810182529390920680845282516343753b4d60e01b81529094506001600160a01b03909116926343753b4d928e928e928e929091600401908190869080828437600083820152601f01601f1916909101905084608080828437600083820152601f01601f1916909101905083604080828437600081840152601f19601f82011690508083019250505082600160200280838360005b838110156123125781810151838201526020016122fa565b5050505090500194505050505060206040518083038186803b15801561233757600080fd5b505afa15801561234b573d6000803e3d6000fd5b505050506040513d602081101561236157600080fd5b505115156001146123a35760405162461bcd60e51b81526004018080602001828103825260298152602001806159016029913960400191505060405180910390fd5b63ffffffff85166000908152600d6020908152604080832065ffffffffffff881684529091529020805460ff191660011790556123e1868885613f6c565b8215158563ffffffff168565ffffffffffff167f69177d798b38e27bcc4e0338307e4f1490e12d1006729d0e6e9cc82a8732f41560405160405180910390a450505050505050505050565b600a6020526000908152604090205481565b7fc89efdaa54c0f20c7adf612882df0950f5a951637e0307cdcb4c672f298b8bc681565b600e818154811061246f57fe5b6000918252602090912001546001600160a01b0316905081565b600e5490565b601354600160801b900460ff1681565b600554600160a01b90046001600160401b031681565b6005546001600160a01b031633146124fe5760405162461bcd60e51b815260040180806020018281038252603f815260200180615aa4603f913960400191505060405180910390fd5b600160038190555061251e6001600160601b036000806001600080612bff565b6000808052600460208190527f17ef568e3e12ab5b9c7254a8d58478811de00f9e6eb34345acd53bf8fd09d3ec9290925560065460055460408051630e670af560e01b8152600160a01b9092046001600160401b03169482019490945292516001600160a01b0390911692630e670af592602480830193919282900301818387803b1580156125ac57600080fd5b505af11580156125c0573d6000803e3d6000fd5b50506040517f0410e6ef2bd89ecf5b2dc2f62157f9863e09e89cb7c7f1abb7d4ec43a6019d1e925060009150a1565b6005546001600160a01b031633146126385760405162461bcd60e51b815260040180806020018281038252603f815260200180615aa4603f913960400191505060405180910390fd5b8051600581111561267a5760405162461bcd60e51b81526004018080602001828103825260408152602001806154b26040913960400191505060405180910390fd5b600381905560005b818110156127655760008060008060006126ae8887815181106126a157fe5b60200260200101516115c8565b9550955095509550509450808411156126f85760405162461bcd60e51b815260040180806020018281038252605d815260200180615ae3605d913960600191505060405180910390fd5b600083116127375760405162461bcd60e51b8152600401808060200182810382526050815260200180615a036050913960600191505060405180910390fd5b612745854386868686612bff565b600087815260046020526040902055505060019093019250612682915050565b507fd4904145d7eae889c5493798579680417459783db0fa67398bea50e56859075f826040518080602001828103825283818151815260200191508051906020019060200280838360005b838110156127c85781810151838201526020016127b0565b505050509050019250505060405180910390a15050565b60105481565b7f8b73c3c69bb8fe3d512ecc4cf759cc79239f7b179b0ffacaa9a75d522b39400f81565b600e5463ffffffff85161061284f5760405162461bcd60e51b815260040180806020018281038252602e8152602001806159a7602e913960400191505060405180910390fd5b600061285a87614106565b9050600160801b811061289e5760405162461bcd60e51b81526004018080602001828103825260318152602001806153ba6031913960400191505060405180910390fd5b8015612b055763ffffffff85166128f2573481146128ed5760405162461bcd60e51b8152600401808060200182810382526037815260200180615c356037913960400191505060405180910390fd5b612b05565b341561292f5760405162461bcd60e51b815260040180806020018281038252602f8152602001806156b6602f913960400191505060405180910390fd5b811561296857612968600e8663ffffffff168154811061294b57fe5b6000918252602090912001546001600160a01b03168285856139df565b6000600e8663ffffffff168154811061297d57fe5b60009182526020918290200154604080516370a0823160e01b815230600482015290516001600160a01b03909216926370a0823192602480840193829003018186803b1580156129cc57600080fd5b505afa1580156129e0573d6000803e3d6000fd5b505050506040513d60208110156129f657600080fd5b5051600e8054919250612a309163ffffffff8916908110612a1357fe5b6000918252602090912001546001600160a01b0316333085613ca8565b6000600e8763ffffffff1681548110612a4557fe5b60009182526020918290200154604080516370a0823160e01b815230600482015290516001600160a01b03909216926370a0823192602480840193829003018186803b158015612a9457600080fd5b505afa158015612aa8573d6000803e3d6000fd5b505050506040513d6020811015612abe57600080fd5b505190508181038314612b025760405162461bcd60e51b8152600401808060200182810382526039815260200180615b6a6039913960400191505060405180910390fd5b50505b612b14338a8a8a8a8a8a61411e565b505050505050505050565b6005546001600160a01b03163314612b685760405162461bcd60e51b815260040180806020018281038252603f815260200180615aa4603f913960400191505060405180910390fd5b60f060ff82161115612bab5760405162461bcd60e51b815260040180806020018281038252603c81526020018061535d603c913960400191505060405180910390fd5b6013805460ff8316600160801b810260ff60801b199092169190911790915560408051918252517fff6221781ac525b04585dbb55cd2ebd2a92c828ca3e42b23813a1137ac9744319181900360200190a150565b600060e082901b60c084901b60a086901b608088901b60608a901b8b171717171790509695505050505050565b600c6020526000908152604090205481565b601354600160401b900463ffffffff1681565b600954600160a01b900465ffffffffffff1681565b8015612cd857612c9d600e8863ffffffff1681548110612c8257fe5b6000918252602090912001546001600160a01b031687613e05565b612cd85760405162461bcd60e51b81526004018080602001828103825260478152602001806156e56047913960600191505060405180910390fd5b612ce06151be565b612cf7886000896001600160c01b0316893361437b565b90506000612d04826143dd565b63ffffffff87166000908152600b6020908152604080832054600d835281842065ffffffffffff8a168552909252909120549192509060ff1615612d795760405162461bcd60e51b81526004018080602001828103825260328152602001806157856032913960400191505060405180910390fd5b612d8d81878765ffffffffffff168561447a565b1515600114612dcd5760405162461bcd60e51b815260040180806020018281038252602e8152602001806159d5602e913960400191505060405180910390fd5b63ffffffff87166000908152600d6020908152604080832065ffffffffffff891684529091529020805460ff19166001179055612e0b898b86613f6c565b8315158763ffffffff168665ffffffffffff167f69177d798b38e27bcc4e0338307e4f1490e12d1006729d0e6e9cc82a8732f41560405160405180910390a450505050505050505050565b60126020908152600091825260409182902080548351601f600260001961010060018616150201909316929092049182018490048402810184019094528084529091830182828015612ee95780601f10612ebe57610100808354040283529160200191612ee9565b820191906000526020600020905b815481529060010190602001808311612ecc57829003601f168201915b505050505081565b7fafd642c6a37a2e6887dc4ad5142f84197828a904e53d3204ecb1100329231eaa81565b6005546001600160a01b03163314612f5e5760405162461bcd60e51b815260040180806020018281038252603f815260200180615aa4603f913960400191505060405180910390fd5b62127500816001600160401b03161115612fa95760405162461bcd60e51b815260040180806020018281038252604a815260200180615514604a913960600191505060405180910390fd5b600580546001600160401b038316600160a01b810267ffffffffffffffff60a01b199092169190911790915560408051918252517f9db302c4547a21fb20a3a794e5f63ee87eb6e4afc3325ebdadba2d1fb4a907379181900360200190a150565b600d60209081526000928352604080842090915290825290205460ff1681565b6001600160a01b0382166000908152600760205260408120546001600160401b031661305857506000611576565b6001600160a01b0383166000818152600760205260408120546402540be4006001600160401b039091166001600160c01b03861602049161309b5750601261318e565b60408051600481526024810182526020810180516001600160e01b031663313ce56760e01b178152915181516000936060936001600160a01b038b16939092909182918083835b602083106131015780518252601f1990920191602091820191016130e2565b6001836020036101000a038019825116818451168082178552505050505050905001915050600060405180830381855afa9150503d8060008114613161576040519150601f19603f3d011682016040523d82523d6000602084013e613166565b606091505b5091509150811561318b5780806020019051602081101561318657600080fd5b505192505b50505b604d8160ff16106131d05760405162461bcd60e51b815260040180806020018281038252603b8152602001806152a1603b913960400191505060405180910390fd5b8060ff16600a0a82816131df57fe5b0495945050505050565b6000805b60035481121561323a576000818152600460205260409020546001600160601b031680841115806132245750806001600160601b03145b1561323157509050613241565b506001016131ed565b5060001990505b919050565b600061328883836040518060400160405280601e81526020017f536166654d6174683a207375627472616374696f6e206f766572666c6f770000815250614501565b9392505050565b600061328883836040518060400160405280601a81526020017f536166654d6174683a206469766973696f6e206279207a65726f000000000000815250614598565b6000826132e057506000611576565b828202828482816132ed57fe5b04146132885760405162461bcd60e51b81526004018080602001828103825260218152602001806157b76021913960400191505060405180910390fd5b600082820183811015613288576040805162461bcd60e51b815260206004820152601b60248201527f536166654d6174683a206164646974696f6e206f766572666c6f770000000000604482015290519081900360640190fd5b303b1590565b60005b825181101561345657600860405180606001604052808584815181106133af57fe5b60200260200101516001600160a01b031681526020016008808686815181106133d457fe5b6020026020010151901b901c815260200160f88585815181106133f357fe5b60209081029190910181015190911c909152825460018082018555600094855293829020835160039092020180546001600160a01b0319166001600160a01b0390921691909117815590820151818401556040909101516002909101550161338d565b505050565b600054610100900460ff16806134745750613474613384565b80613482575060005460ff16155b6134bd5760405162461bcd60e51b815260040180806020018281038252602e81526020018061572c602e913960400191505060405180910390fd5b600054610100900460ff161580156134e8576000805460ff1961ff0019909116610100171660011790555b600080546001600160a01b03808716620100000262010000600160b01b031990921691909117909155600180548583166001600160a01b0319918216179091556002805492851692909116919091179055801561354b576000805461ff00191690555b50505050565b600054610100900460ff168061356a575061356a613384565b80613578575060005460ff16155b6135b35760405162461bcd60e51b815260040180806020018281038252602e81526020018061572c602e913960400191505060405180910390fd5b600054610100900460ff161580156135de576000805460ff1961ff0019909116610100171660011790555b600580546001600160a01b03199081166001600160a01b038781169190911767ffffffffffffffff60a01b1916600160a01b6001600160401b038816021790925560068054909116918416919091179055801561354b576000805461ff001916905550505050565b600954600160d01b810463ffffffff166000908152600a60205260408120546008805492939192600160a01b90920465ffffffffffff16918491829182919060ff891690811061369257fe5b9060005260206000209060030201600101546008808960ff16815481106136b557fe5b906000526020600020906003020160020154816136ce57fe5b0460020260050160010102905060006008808960ff16815481106136ee57fe5b9060005260206000209060030201600201548161370757fe5b60408051929091048102848101808401614eb201909252614e72909101825260d087811b60208401528e901b6026830152602c8201889052604c82018d9052606c82018c90529150608c810161375d818c6145f3565b614e000161376b600461482a565b9096509450838511156137af5760405162461bcd60e51b815260040180806020018281038252602e815260200180615a76602e913960400191505060405180910390fd5b8486823784016137c18186860361483e565b848403016137cf600561482a565b9096509450828511156138135760405162461bcd60e51b81526004018080602001828103825260408152602001806152dc6040913960400191505060405180910390fd5b8486823784016138258186850361483e565b848303810190504660f01b815260028101905060006009601a9054906101000a900463ffffffff1660010163ffffffff1690508060e01b82527f30644e72e131a029b85045b68181585d2833e84879b9709143e1f593f00000016002846040518082805190602001908083835b602083106138b15780518252601f199092019160209182019101613892565b51815160209384036101000a60001901801990921691161790526040519190930194509192505080830381855afa1580156138f0573d6000803e3d6000fd5b5050506040513d602081101561390557600080fd5b50518161390e57fe5b069f9e505050505050505050505050505050565b601354600160401b900463ffffffff1660009081526012602052604081208054604e60026101006001841615026000190190921691909104049061396690836151dc565b60138054600163ffffffff600160401b808404821692909201811682026bffffffff000000000000000019909316929092179283905582048116600160601b9092041614156139da5760138054600163ffffffff600160601b808404821692909201160263ffffffff60601b199091161790555b905090565b6000828260208110156139f157600080fd5b50356001600160e01b031916905063d505accf60e01b8114613a445760405162461bcd60e51b815260040180806020018281038252602e815260200180615bde602e913960400191505060405180910390fd5b6000808080808080613a59896004818d615278565b60e0811015613a6757600080fd5b506001600160a01b038135811698506020820135169650604081013595506060810135945060ff608082013516935060a0810135925060c001359050338714613ae15760405162461bcd60e51b815260040180806020018281038252603081526020018061541f6030913960400191505060405180910390fd5b6001600160a01b0386163014613b285760405162461bcd60e51b81526004018080602001828103825260258152602001806156916025913960400191505060405180910390fd5b8a8514613b665760405162461bcd60e51b815260040180806020018281038252602d815260200180615954602d913960400191505060405180910390fd5b8b6001600160a01b031663d505accf60e01b8888888888888860405160240180886001600160a01b03168152602001876001600160a01b031681526020018681526020018581526020018460ff168152602001838152602001828152602001975050505050505050604051602081830303815290604052906001600160e01b0319166020820180516001600160e01b0383818316178352505050506040518082805190602001908083835b60208310613c305780518252601f199092019160209182019101613c11565b6001836020036101000a0380198251168184511680821785525050505050509050019150506000604051808303816000865af19150503d8060008114613c92576040519150601f19603f3d011682016040523d82523d6000602084013e613c97565b606091505b505050505050505050505050505050565b604080516001600160a01b0385811660248301528481166044830152606480830185905283518084039091018152608490920183526020820180516001600160e01b03166323b872dd60e01b17815292518251600094606094938a169392918291908083835b60208310613d2d5780518252601f199092019160209182019101613d0e565b6001836020036101000a0380198251168184511680821785525050505050509050019150506000604051808303816000865af19150503d8060008114613d8f576040519150601f19603f3d011682016040523d82523d6000602084013e613d94565b606091505b5091509150818015613dc2575080511580613dc25750808060200190516020811015613dbf57600080fd5b50515b613dfd5760405162461bcd60e51b81526004018080602001828103825260348152602001806153eb6034913960400191505060405180910390fd5b505050505050565b600080613e12848461302a565b905080613e23576001915050611576565b6000613e2e826131e9565b9050806000191415613e4557600192505050611576565b600080600080600080613e6a60046000898152602001908152602001600020546115c8565b9550955095509550955095506000613e8b864361324690919063ffffffff16565b90506000613e99828661328f565b9050613ea861153c82866132d1565b9550828610613ebc57829550439650613ed3565b613ed0613ec982876132d1565b889061332a565b96505b85613eeb5760009a5050505050505050505050611576565b613ef6866001613246565b9550613f06888888888888612bff565b600460008b815260200190815260200160002081905550868960ff167fa35fe9a9e21cdbbc4774aa8a56e7b97ea9c06afc09ffb06af593d26951e350aa886040518082815260200191505060405180910390a35060019c9b505050505050505050505050565b8015613fb257613fad600e8363ffffffff1681548110613f8857fe5b6000918252602090912001546001600160a01b0316336001600160c01b038616614857565b613456565b63ffffffff821661403e576006546040805163cfc0b64160e01b81523360048201526000602482018190526001600160c01b0387166044830181905292516001600160a01b039094169363cfc0b6419392606480820193929182900301818588803b15801561402057600080fd5b505af1158015614034573d6000803e3d6000fd5b5050505050613456565b6000600e8363ffffffff168154811061405357fe5b6000918252602090912001546006546001600160a01b039182169250614085918391166001600160c01b038716614aa9565b6006546040805163cfc0b64160e01b81523360048201526001600160a01b0384811660248301526001600160c01b03881660448301529151919092169163cfc0b64191606480830192600092919082900301818387803b1580156140e857600080fd5b505af11580156140fc573d6000803e3d6000fd5b5050505050505050565b6407ffffffff811660239190911c601f16600a0a0290565b600061412984614106565b9050600160c01b811061416d5760405162461bcd60e51b815260040180806020018281038252602e815260200180615639602e913960400191505060405180910390fd5b65ffffffffffff82166141bc5780156141b75760405162461bcd60e51b815260040180806020018281038252603b815260200180615ba3603b913960400191505060405180910390fd5b614279565b65ffffffffffff8216600114156142115764ffffffffff8516156141b75760405162461bcd60e51b815260040180806020018281038252603781526020018061544f6037913960400191505060405180910390fd5b60ff65ffffffffffff831611801561423e575060095465ffffffffffff600160a01b909104811690831611155b6142795760405162461bcd60e51b81526004018080602001828103825260288152602001806158d96028913960400191505060405180910390fd5b65ffffffffffff86166142c757866142c25760405162461bcd60e51b815260040180806020018281038252604181526020018061555e6041913960600191505060405180910390fd5b61436c565b60ff65ffffffffffff87161180156142f4575060095465ffffffffffff600160a01b909104811690871611155b61432f5760405162461bcd60e51b815260040180806020018281038252602a815260200180615667602a913960400191505060405180910390fd5b861561436c5760405162461bcd60e51b81526004018080602001828103825260428152602001806158736042913960600191505060405180910390fd5b6140fc88888888888888614bf6565b6143836151be565b61438b6151be565b63ffffffff96909616602095861b65ffff000000001617690100000000000000000060b785901c1617865250928401919091526001600160ff1b031660408301526001600160a01b0316606082015290565b60025460405163248f667760e01b81526000916001600160a01b03169063248f6677908490600401808260808083838a5b8381101561442657818101518382015260200161440e565b5050505090500191505060206040518083038186803b15801561444857600080fd5b505afa15801561445c573d6000803e3d6000fd5b505050506040513d602081101561447257600080fd5b505192915050565b6000806144878484614dae565b8551909150600090600019015b600081126144f4578681815181106144a857fe5b602002602001015191506000818760008212156144c157fe5b6001911c8116149050806144de576144d98484614dda565b6144e8565b6144e88385614dda565b93505060001901614494565b5050909414949350505050565b600081848411156145905760405162461bcd60e51b81526004018080602001828103825283818151815260200191508051906020019080838360005b8381101561455557818101518382015260200161453d565b50505050905090810190601f1680156145825780820380516001836020036101000a031916815260200191505b509250505060405180910390fd5b505050900390565b600081836145e75760405162461bcd60e51b815260206004820181815283516024840152835190928392604490910191908501908083836000831561455557818101518382015260200161453d565b5060008385816131df57fe5b600080614600600361482a565b9092509050606581046000606085156146d057601354600160401b900463ffffffff166000908152601260209081526040918290208054835160026101006001841615026000190190921691909104601f81018490048402820184019094528381529290918301828280156146b65780601f1061468b576101008083540402835291602001916146b6565b820191906000526020600020905b81548152906001019060200180831161469957829003601f168201915b50505050509050604e8151816146c857fe5b0491506146d5565b600091505b61010083830111156147185760405162461bcd60e51b81526004018080602001828103825260248152602001806158b56024913960400191505060405180910390fd5b811561474657604e820287019660208201905b8881101561474357815181526020918201910161472b565b50505b60005b8381101561480d57600e546065870196803560001a916001820135916021810135916041820135916061013560e01c9081106147b65760405162461bcd60e51b815260040180806020018281038252602a815260200180615806602a913960400191505060405180910390fd5b6001600160a01b0360ff8616156147d6576147d383858789614df7565b90505b60601b8d5260148d0191909152600060348d0181905260e09190911b60448d015260488c01525050604e9098019750600101614749565b5061482187604e858561010003030261483e565b50505050505050565b602002600490810135602481019291013590565b808201915b828110156134565760008152602001614843565b6001600160a01b0383166149555760408051600080825260208201909252339083906040518082805190602001908083835b602083106148a85780518252601f199092019160209182019101614889565b6001836020036101000a03801982511681845116808217855250505050505090500191505060006040518083038185875af1925050503d806000811461490a576040519150601f19603f3d011682016040523d82523d6000602084013e61490f565b606091505b505090508061494f5760405162461bcd60e51b815260040180806020018281038252602a81526020018061592a602a913960400191505060405180910390fd5b50613456565b604080516001600160a01b038481166024830152604480830185905283518084039091018152606490920183526020820180516001600160e01b031663a9059cbb60e01b178152925182516000946060949389169392918291908083835b602083106149d25780518252601f1990920191602091820191016149b3565b6001836020036101000a0380198251168184511680821785525050505050509050019150506000604051808303816000865af19150503d8060008114614a34576040519150601f19603f3d011682016040523d82523d6000602084013e614a39565b606091505b5091509150818015614a67575080511580614a675750808060200190516020811015614a6457600080fd5b50515b614aa25760405162461bcd60e51b815260040180806020018281038252602c815260200180615486602c913960400191505060405180910390fd5b5050505050565b604080516001600160a01b038481166024830152604480830185905283518084039091018152606490920183526020820180516001600160e01b031663095ea7b360e01b178152925182516000946060949389169392918291908083835b60208310614b265780518252601f199092019160209182019101614b07565b6001836020036101000a0380198251168184511680821785525050505050509050019150506000604051808303816000865af19150503d8060008114614b88576040519150601f19603f3d011682016040523d82523d6000602084013e614b8d565b606091505b5091509150818015614bbb575080511580614bbb5750808060200190516020811015614bb857600080fd5b50515b614aa25760405162461bcd60e51b815260040180806020018281038252602a815260200180615b40602a913960400191505060405180910390fd5b604080516bffffffffffffffffffffffff1960608a901b16602080830191909152603482018990526001600160d01b031960d089811b821660548501526001600160d81b031960d88a811b8216605a87015289901b16605f8501526001600160e01b031960e088901b16606485015285901b1660688301528251604e81840381018252606e9093018452601354600160601b900463ffffffff16600090815260129092529290208054600260001960018316156101000201909116049190910490614cc19083614ff0565b601354604080516020808252855181830152855160ff861694600160601b900463ffffffff16937fdd5c7c5ea02d3c5d1621513faa6de53d474ee6f111eda6352a63e3dfe8c401199388939092839283019185019080838360005b83811015614d34578181015183820152602001614d1c565b50505050905090810190601f168015614d615780820380516001836020036101000a031916815260200191505b509250505060405180910390a360808160010110612b145760138054600163ffffffff600160601b808404821692909201160263ffffffff60601b19909116179055505050505050505050565b6000614db8615223565b8381526020810183905260016040820152614dd28161513a565b949350505050565b6000614de4615241565b83815260208101839052614dd281615177565b60007f7fffffffffffffffffffffffffffffff5d576e7357a4501ddfe92f46681b20a0831115614e585760405162461bcd60e51b8152600401808060200182810382526029815260200180615c0c6029913960400191505060405180910390fd5b604080517fafd642c6a37a2e6887dc4ad5142f84197828a904e53d3204ecb1100329231eaa6020808301919091527fbe287413178bfeddef8d9753ad4be825ae998706a6dabff23978b59dccaea0ad828401527fff946cf82975b1a2b6e6d28c9a76a4b8d7a1fd0592b785cb92771933310f9ee7606083015260808083018990528351808403909101815260a090920190925280519101206000614efa6113dd565b82604051602001808061190160f01b81525060020183815260200182815260200192505050604051602081830303815290604052805190602001209050600060018286898960405160008152602001604052604051808581526020018460ff1681526020018381526020018281526020019450505050506020604051602081039080840390855afa158015614f93573d6000803e3d6000fd5b5050604051601f1901519150506001600160a01b038116614fe55760405162461bcd60e51b815260040180806020018281038252602b81526020018061575a602b913960400191505060405180910390fd5b979650505050505050565b81546002600180831615610100020382160482518082016020811060208410016002811461509a57600181146150bf578660005260208404602060002001600160028402018855602085068060200390508088018589016001836101000a0392508282511684540184556001840193506020820191505b808210156150845781518455600184019350602082019150615067565b815191036101000a908190040290915550614821565b60028302826020036101000a846020036101000a602089015104020185018755614821565b8660005260208404602060002001600160028402018855846020038088018589016001836101000a0392508282511660ff198a160184556020820191506001840193505b808210156151205781518455600184019350602082019150615103565b815191036101000a90819004029091555050505050505050565b6001546040516304b98e1d60e31b8152825160049091019081526000916001600160a01b0316906325cc70e890849080826060808383602061440e565b60008054604080516314d2f97b60e11b8152620100009092046001600160a01b0316916329a5f2f691859160040190819083908083838a818101518382015260200161440e565b60405180608001604052806004906020820280368337509192915050565b50805460018160011615610100020316600290046000825580601f106152025750615220565b601f016020900490600052602060002090810190615220919061525f565b50565b60405180606001604052806003906020820280368337509192915050565b60405180604001604052806002906020820280368337509192915050565b5b808211156152745760008155600101615260565b5090565b60008085851115615287578182fd5b83861115615293578182fd5b505082019391909203915056fe496e7374616e7457697468647261774d616e616765723a3a5f746f6b656e325553443a20544f4b454e5f444543494d414c535f4f564552464c4f574865726d657a3a3a5f636f6e73747275637443697263756974496e7075743a20494e56414c49445f464545494458434f4f5244494e41544f525f4c454e475448496e7374616e7457697468647261774d616e616765723a3a757064617465546f6b656e45786368616e67653a20494e56414c49445f41525241595f4c454e4754484865726d657a3a3a757064617465466f7267654c314c32426174636854696d656f75743a204d41585f464f52474554494d454f55545f4558434545444865726d657a3a3a666f72676542617463683a20494e56414c49445f50524f4f464865726d657a3a3a6164644c315472616e73616374696f6e3a204c4f4144414d4f554e545f4558434545445f4c494d49544865726d657a3a3a5f736166655472616e7366657246726f6d3a2045524332305f5452414e5346455246524f4d5f4641494c45444865726d657a3a3a5f7065726d69743a205045524d49545f4f574e45525f4d5553545f42455f5448455f53454e4445524865726d657a3a3a5f6164644c315472616e73616374696f6e3a204c4f4144414d4f554e545f4d5553545f42455f305f49465f455849544865726d657a3a3a5f736166655472616e736665723a2045524332305f5452414e534645525f4641494c4544496e7374616e7457697468647261774d616e616765723a3a7570646174654275636b657473506172616d65746572733a204d41585f4e554d5f4255434b4554534865726d657a3a3a666f72676542617463683a2041554354494f4e5f44454e494544496e7374616e7457697468647261774d616e616765723a3a7570646174655769746864726177616c44656c61793a204558434545445f4d41585f5749544844524157414c5f44454c41594865726d657a3a3a5f6164644c315472616e73616374696f6e3a20494e56414c49445f4352454154455f4143434f554e545f574954485f4e4f5f424142594a55424865726d657a3a3a616464546f6b656e3a20414444524553535f305f494e56414c49444865726d657a3a3a666f72676542617463683a20494e54454e414c5f54585f4e4f545f414c4c4f5745444865726d657a3a3a616464546f6b656e3a20544f4b454e5f4c4953545f46554c4c4865726d657a3a3a696e697469616c697a654865726d657a20414444524553535f305f4e4f545f56414c49444865726d657a3a3a5f6164644c315472616e73616374696f6e3a20414d4f554e545f4558434545445f4c494d49544865726d657a3a3a5f6164644c315472616e73616374696f6e3a20494e56414c49445f46524f4d4944584865726d657a3a3a5f7065726d69743a205350454e4445525f4d5553545f42455f544849534865726d657a3a3a6164644c315472616e73616374696f6e3a204d53475f56414c55455f4e4f545f455155414c5f304865726d657a3a3a77697468647261774d65726b6c6550726f6f663a20494e5354414e545f57495448445241575f5741535445445f464f525f544849535f5553445f52414e4745496e697469616c697a61626c653a20636f6e747261637420697320616c726561647920696e697469616c697a65644865726d657a48656c706572733a3a5f636865636b5369673a20494e56414c49445f5349474e41545552454865726d657a3a3a77697468647261774d65726b6c6550726f6f663a2057495448445241575f414c52454144595f444f4e45536166654d6174683a206d756c7469706c69636174696f6e206f766572666c6f774865726d657a3a3a7769746864726177436972637569743a2057495448445241575f414c52454144595f444f4e454865726d657a3a3a5f6275696c644c31446174613a20544f4b454e5f4e4f545f524547495354455245444865726d657a3a3a7769746864726177436972637569743a20494e5354414e545f57495448445241575f5741535445445f464f525f544849535f5553445f52414e47454865726d657a3a3a5f6164644c315472616e73616374696f6e3a20424142594a55425f4d5553545f42455f305f49465f4e4f545f4352454154455f4143434f554e544865726d657a3a3a5f6275696c644c31446174613a204c315f54585f4f564552464c4f574865726d657a3a3a5f6164644c315472616e73616374696f6e3a20494e56414c49445f544f4944584865726d657a3a3a7769746864726177436972637569743a20494e56414c49445f5a4b5f50524f4f464865726d657a3a3a5f736166655472616e736665723a204554485f5452414e534645525f4641494c45444865726d657a3a3a5f7065726d69743a205045524d49545f414d4f554e545f444f45535f4e4f545f4d415443484865726d657a3a3a666f72676542617463683a204c314c3242415443485f52455155495245444865726d657a3a3a6164644c315472616e73616374696f6e3a20544f4b454e5f4e4f545f524547495354455245444865726d657a3a3a77697468647261774d65726b6c6550726f6f663a20534d545f50524f4f465f494e56414c4944496e7374616e7457697468647261774d616e616765723a3a7570646174654275636b657473506172616d65746572733a20524154455f424c4f434b535f4d5553545f42455f4d4f52455f5448414e5f304865726d657a3a3a616464546f6b656e3a20544f54414c5f535550504c595f5a45524f4865726d657a3a3a5f636f6e73747275637443697263756974496e7075743a204c325f54585f4f564552464c4f57496e7374616e7457697468647261774d616e616765723a3a6f6e6c79476f7665726e616e63653a204f4e4c595f474f5645524e414e43455f41444452455353496e7374616e7457697468647261774d616e616765723a3a7570646174654275636b657473506172616d65746572733a205749544844524157414c535f4d5553545f42455f4c4553535f5448414e5f4d41585749544844524157414c534865726d657a3a3a5f73616665417070726f76653a2045524332305f415050524f56455f4641494c45444865726d657a3a3a6164644c315472616e73616374696f6e3a204c4f4144414d4f554e545f45524332305f444f45535f4e4f545f4d415443484865726d657a3a3a5f6164644c315472616e73616374696f6e3a20414d4f554e545f4d5553545f42455f305f49465f4e4f545f5452414e534645524865726d657a41756374696f6e50726f746f636f6c3a3a5f7065726d69743a204e4f545f56414c49445f43414c4c4865726d657a48656c706572733a3a5f636865636b5369673a20494e56414c49445f535f56414c55454865726d657a3a3a6164644c315472616e73616374696f6e3a204c4f4144414d4f554e545f4554485f444f45535f4e4f545f4d41544348a26469706673582212206f2f363843d3e92aebf401af4af0933ae569142492754284b21be663b6380b3164736f6c634300060c0033",
  "linkReferences": {},
  "deployedLinkReferences": {}
}