{
  "_format": "hh-sol-artifact-1",
  "contractName": "HermezGovernance",
  "sourceName": "contracts/HermezGovernance/HermezGovernance.sol",
  "abi": [
    {
      "inputs": [
        {
          "internalType": "address",
          "name": "communityCouncil",
          "type": "address"
        }
      ],
      "stateMutability": "nonpayable",
      "type": "constructor"
    },
    {
      "anonymous": false,
      "inputs": [
        {
          "indexed": false,
          "internalType": "bytes",
          "name": "returnData",
          "type": "bytes"
        }
      ],
      "name": "ExecFail",
      "type": "event"
    },
    {
      "anonymous": false,
      "inputs": [
        {
          "indexed": false,
          "internalType": "bytes",
          "name": "returnData",
          "type": "bytes"
        }
      ],
      "name": "ExecOk",
      "type": "event"
    },
    {
      "anonymous": false,
      "inputs": [
        {
          "indexed": true,
          "internalType": "bytes32",
          "name": "role",
          "type": "bytes32"
        },
        {
          "indexed": true,
          "internalType": "bytes32",
          "name": "previousAdminRole",
          "type": "bytes32"
        },
        {
          "indexed": true,
          "internalType": "bytes32",
          "name": "newAdminRole",
          "type": "bytes32"
        }
      ],
      "name": "RoleAdminChanged",
      "type": "event"
    },
    {
      "anonymous": false,
      "inputs": [
        {
          "indexed": true,
          "internalType": "bytes32",
          "name": "role",
          "type": "bytes32"
        },
        {
          "indexed": true,
          "internalType": "address",
          "name": "account",
          "type": "address"
        },
        {
          "indexed": true,
          "internalType": "address",
          "name": "sender",
          "type": "address"
        }
      ],
      "name": "RoleGranted",
      "type": "event"
    },
    {
      "anonymous": false,
      "inputs": [
        {
          "indexed": true,
          "internalType": "bytes32",
          "name": "role",
          "type": "bytes32"
        },
        {
          "indexed": true,
          "internalType": "address",
          "name": "account",
          "type": "address"
        },
        {
          "indexed": true,
          "internalType": "address",
          "name": "sender",
          "type": "address"
        }
      ],
      "name": "RoleRevoked",
      "type": "event"
    },
    {
      "inputs": [],
      "name": "DEFAULT_ADMIN_ROLE",
      "outputs": [
        {
          "internalType": "bytes32",
          "name": "",
          "type": "bytes32"
        }
      ],
      "stateMutability": "view",
      "type": "function"
    },
    {
      "inputs": [
        {
          "internalType": "bytes32",
          "name": "role",
          "type": "bytes32"
        }
      ],
      "name": "decentralize",
      "outputs": [],
      "stateMutability": "nonpayable",
      "type": "function"
    },
    {
      "inputs": [
        {
          "internalType": "address",
          "name": "destination",
          "type": "address"
        },
        {
          "internalType": "uint256",
          "name": "value",
          "type": "uint256"
        },
        {
          "internalType": "bytes",
          "name": "data",
          "type": "bytes"
        }
      ],
      "name": "execute",
      "outputs": [],
      "stateMutability": "nonpayable",
      "type": "function"
    },
    {
      "inputs": [
        {
          "internalType": "bytes32",
          "name": "",
          "type": "bytes32"
        }
      ],
      "name": "forbidden",
      "outputs": [
        {
          "internalType": "bool",
          "name": "",
          "type": "bool"
        }
      ],
      "stateMutability": "view",
      "type": "function"
    },
    {
      "inputs": [
        {
          "internalType": "bytes32",
          "name": "role",
          "type": "bytes32"
        }
      ],
      "name": "getRoleAdmin",
      "outputs": [
        {
          "internalType": "bytes32",
          "name": "",
          "type": "bytes32"
        }
      ],
      "stateMutability": "view",
      "type": "function"
    },
    {
      "inputs": [
        {
          "internalType": "bytes32",
          "name": "role",
          "type": "bytes32"
        },
        {
          "internalType": "uint256",
          "name": "index",
          "type": "uint256"
        }
      ],
      "name": "getRoleMember",
      "outputs": [
        {
          "internalType": "address",
          "name": "",
          "type": "address"
        }
      ],
      "stateMutability": "view",
      "type": "function"
    },
    {
      "inputs": [
        {
          "internalType": "bytes32",
          "name": "role",
          "type": "bytes32"
        }
      ],
      "name": "getRoleMemberCount",
      "outputs": [
        {
          "internalType": "uint256",
          "name": "",
          "type": "uint256"
        }
      ],
      "stateMutability": "view",
      "type": "function"
    },
    {
      "inputs": [
        {
          "internalType": "bytes32",
          "name": "role",
          "type": "bytes32"
        },
        {
          "internalType": "address",
          "name": "account",
          "type": "address"
        }
      ],
      "name": "grantRole",
      "outputs": [],
      "stateMutability": "nonpayable",
      "type": "function"
    },
    {
      "inputs": [
        {
          "internalType": "bytes32",
          "name": "role",
          "type": "bytes32"
        },
        {
          "internalType": "address",
          "name": "account",
          "type": "address"
        }
      ],
      "name": "hasRole",
      "outputs": [
        {
          "internalType": "bool",
          "name": "",
          "type": "bool"
        }
      ],
      "stateMutability": "view",
      "type": "function"
    },
    {
      "inputs": [
        {
          "internalType": "bytes32",
          "name": "role",
          "type": "bytes32"
        },
        {
          "internalType": "address",
          "name": "account",
          "type": "address"
        }
      ],
      "name": "renounceRole",
      "outputs": [],
      "stateMutability": "nonpayable",
      "type": "function"
    },
    {
      "inputs": [
        {
          "internalType": "bytes32",
          "name": "role",
          "type": "bytes32"
        },
        {
          "internalType": "address",
          "name": "account",
          "type": "address"
        }
      ],
      "name": "revokeRole",
      "outputs": [],
      "stateMutability": "nonpayable",
      "type": "function"
    }
  ],
  "bytecode": "0x608060405234801561001057600080fd5b50604051610d65380380610d658339818101604052602081101561003357600080fd5b5051610040600082610046565b5061014b565b6100508282610054565b5050565b6000828152602081815260409091206100769183906107e66100c7821b17901c565b15610050576100836100e5565b6001600160a01b0316816001600160a01b0316837f2f8788117e7eff1d82e926ec794901d17c78024a50270940304540a733656f0d60405160405180910390a45050565b60006100dc836001600160a01b0384166100e9565b90505b92915050565b3390565b60006100f58383610133565b61012b575081546001818101845560008481526020808220909301849055845484825282860190935260409020919091556100df565b5060006100df565b60009081526001919091016020526040902054151590565b610c0b8061015a6000396000f3fe608060405234801561001057600080fd5b50600436106100a95760003560e01c806391d148541161007157806391d1485414610193578063a217fddf146101d3578063b61d27f6146101db578063be6a151914610296578063ca15c873146102b3578063d547741f146102d0576100a9565b8063248a9ca3146100ae5780632f2ff15d146100dd57806336568abe1461010b5780636d9e6997146101375780639010d07c14610154575b600080fd5b6100cb600480360360208110156100c457600080fd5b50356102fc565b60408051918252519081900360200190f35b610109600480360360408110156100f357600080fd5b50803590602001356001600160a01b0316610311565b005b6101096004803603604081101561012157600080fd5b50803590602001356001600160a01b031661037d565b6101096004803603602081101561014d57600080fd5b50356103de565b6101776004803603604081101561016a57600080fd5b508035906020013561043a565b604080516001600160a01b039092168252519081900360200190f35b6101bf600480360360408110156101a957600080fd5b50803590602001356001600160a01b031661045b565b604080519115158252519081900360200190f35b6100cb610473565b610109600480360360608110156101f157600080fd5b6001600160a01b038235169160208101359181019060608101604082013564010000000081111561022157600080fd5b82018360208201111561023357600080fd5b8035906020019184600183028401116401000000008311171561025557600080fd5b91908080601f016020809104026020016040519081016040528093929190818152602001838380828437600092019190915250929550610478945050505050565b6101bf600480360360208110156102ac57600080fd5b5035610761565b6100cb600480360360208110156102c957600080fd5b5035610776565b610109600480360360408110156102e657600080fd5b50803590602001356001600160a01b031661078d565b60009081526020819052604090206002015490565b6000828152602081905260409020600201546103349061032f6107fb565b61045b565b61036f5760405162461bcd60e51b815260040180806020018281038252602f815260200180610ac5602f913960400191505060405180910390fd5b61037982826107ff565b5050565b6103856107fb565b6001600160a01b0316816001600160a01b0316146103d45760405162461bcd60e51b815260040180806020018281038252602f815260200180610ba7602f913960400191505060405180910390fd5b6103798282610868565b30331461041c5760405162461bcd60e51b815260040180806020018281038252602e815260200180610b24602e913960400191505060405180910390fd5b6000908152600160208190526040909120805460ff19169091179055565b600082815260208190526040812061045290836108d1565b90505b92915050565b600082815260208190526040812061045290836108dd565b600081565b600081806020019051602081101561048f57600080fd5b5051604080516bffffffffffffffffffffffff19606088901b166020828101919091526001600160e01b03198416603483015282516018818403018152603890920190925280519101209091506104e6813361045b565b6105215760405162461bcd60e51b815260040180806020018281038252602c815260200180610b52602c913960400191505060405180910390fd5b60008181526001602052604090205460ff161561056f5760405162461bcd60e51b8152600401808060200182810382526029815260200180610b7e6029913960400191505060405180910390fd5b60006060866001600160a01b031686866040518082805190602001908083835b602083106105ae5780518252601f19909201916020918201910161058f565b6001836020036101000a03801982511681845116808217855250505050505090500191505060006040518083038185875af1925050503d8060008114610610576040519150601f19603f3d011682016040523d82523d6000602084013e610615565b606091505b509150915081156106be577f95ee0091e130755865e01ed09db6c0e66a34265b9dd167a2ffffe5efce28bd94816040518080602001828103825283818151815260200191508051906020019080838360005b8381101561067f578181015183820152602001610667565b50505050905090810190601f1680156106ac5780820380516001836020036101000a031916815260200191505b509250505060405180910390a1610758565b7f565c6fa3a11b7e0a64b8248806e929dd749b32b8bceba18e57e2ececdc3e181b816040518080602001828103825283818151815260200191508051906020019080838360005b8381101561071d578181015183820152602001610705565b50505050905090810190601f16801561074a5780820380516001836020036101000a031916815260200191505b509250505060405180910390a15b50505050505050565b60016020526000908152604090205460ff1681565b6000818152602081905260408120610455906108f2565b6000828152602081905260409020600201546107ab9061032f6107fb565b6103d45760405162461bcd60e51b8152600401808060200182810382526030815260200180610af46030913960400191505060405180910390fd5b6000610452836001600160a01b0384166108fd565b3390565b600082815260208190526040902061081790826107e6565b15610379576108246107fb565b6001600160a01b0316816001600160a01b0316837f2f8788117e7eff1d82e926ec794901d17c78024a50270940304540a733656f0d60405160405180910390a45050565b60008281526020819052604090206108809082610947565b156103795761088d6107fb565b6001600160a01b0316816001600160a01b0316837ff6391f5c32d9c69d2a47ea670b442974b53935d1edc7fd64eb21e047a839171b60405160405180910390a45050565b6000610452838361095c565b6000610452836001600160a01b0384166109c0565b6000610455826109d8565b600061090983836109c0565b61093f57508154600181810184556000848152602080822090930184905584548482528286019093526040902091909155610455565b506000610455565b6000610452836001600160a01b0384166109dc565b8154600090821061099e5760405162461bcd60e51b8152600401808060200182810382526022815260200180610aa36022913960400191505060405180910390fd5b8260000182815481106109ad57fe5b9060005260206000200154905092915050565b60009081526001919091016020526040902054151590565b5490565b60008181526001830160205260408120548015610a985783546000198083019190810190600090879083908110610a0f57fe5b9060005260206000200154905080876000018481548110610a2c57fe5b600091825260208083209091019290925582815260018981019092526040902090840190558654879080610a5c57fe5b60019003818190600052602060002001600090559055866001016000878152602001908152602001600020600090556001945050505050610455565b600091505061045556fe456e756d657261626c655365743a20696e646578206f7574206f6620626f756e6473416363657373436f6e74726f6c3a2073656e646572206d75737420626520616e2061646d696e20746f206772616e74416363657373436f6e74726f6c3a2073656e646572206d75737420626520616e2061646d696e20746f207265766f6b654865726d657a476f7665726e616e63653a3a646563656e7472616c697a65204f4e4c595f474f5645524e414e43454865726d657a476f7665726e616e63653a3a657865637574653a204f4e4c595f414c4c4f5745445f524f4c454865726d657a476f7665726e616e63653a3a657865637574653a20464f5242494444454e5f524f4c45416363657373436f6e74726f6c3a2063616e206f6e6c792072656e6f756e636520726f6c657320666f722073656c66a2646970667358221220c596f1a0d0b4754db2a089986cfff3274168bbce2b8635ad322a21ab9c41df1d64736f6c634300060c0033",
  "linkReferences": {},
  "deployedLinkReferences": {}
}